{
  "_format": "hh-sol-artifact-1",
  "contractName": "MultiVoteChain",
  "sourceName": "contracts/MultiVoteChain.sol",
  "abi": [
    {
      "anonymous": false,
      "inputs": [
        {
          "indexed": false,
          "internalType": "uint256",
          "name": "electionId",
          "type": "uint256"
        },
        {
          "indexed": false,
          "internalType": "string",
          "name": "name",
          "type": "string"
        },
        {
          "indexed": false,
          "internalType": "string[]",
          "name": "candidates",
          "type": "string[]"
        }
      ],
      "name": "ElectionCreated",
      "type": "event"
    },
    {
      "anonymous": false,
      "inputs": [
        {
          "indexed": false,
          "internalType": "uint256",
          "name": "electionId",
          "type": "uint256"
        },
        {
          "indexed": false,
          "internalType": "address",
          "name": "voter",
          "type": "address"
        },
        {
          "indexed": false,
          "internalType": "string",
          "name": "candidate",
          "type": "string"
        }
      ],
      "name": "Voted",
      "type": "event"
    },
    {
      "inputs": [
        {
          "internalType": "string",
          "name": "_name",
          "type": "string"
        },
        {
          "internalType": "string[]",
          "name": "_candidates",
          "type": "string[]"
        }
      ],
      "name": "createElection",
      "outputs": [],
      "stateMutability": "nonpayable",
      "type": "function"
    },
    {
      "inputs": [],
      "name": "electionCount",
      "outputs": [
        {
          "internalType": "uint256",
          "name": "",
          "type": "uint256"
        }
      ],
      "stateMutability": "view",
      "type": "function"
    },
    {
      "inputs": [],
      "name": "getAllElections",
      "outputs": [
        {
          "internalType": "string[]",
          "name": "names",
          "type": "string[]"
        },
        {
          "internalType": "uint256[]",
          "name": "ids",
          "type": "uint256[]"
        }
      ],
      "stateMutability": "view",
      "type": "function"
    },
    {
      "inputs": [
        {
          "internalType": "uint256",
          "name": "electionId",
          "type": "uint256"
        }
      ],
      "name": "getCandidates",
      "outputs": [
        {
          "internalType": "string[]",
          "name": "",
          "type": "string[]"
        }
      ],
      "stateMutability": "view",
      "type": "function"
    },
    {
      "inputs": [
        {
          "internalType": "uint256",
          "name": "electionId",
          "type": "uint256"
        }
      ],
      "name": "getElectionName",
      "outputs": [
        {
          "internalType": "string",
          "name": "",
          "type": "string"
        }
      ],
      "stateMutability": "view",
      "type": "function"
    },
    {
      "inputs": [
        {
          "internalType": "uint256",
          "name": "electionId",
          "type": "uint256"
        },
        {
          "internalType": "string",
          "name": "candidate",
          "type": "string"
        }
      ],
      "name": "getVotes",
      "outputs": [
        {
          "internalType": "uint256",
          "name": "",
          "type": "uint256"
        }
      ],
      "stateMutability": "view",
      "type": "function"
    },
    {
      "inputs": [
        {
          "internalType": "uint256",
          "name": "electionId",
          "type": "uint256"
        },
        {
          "internalType": "string",
          "name": "candidate",
          "type": "string"
        }
      ],
      "name": "vote",
      "outputs": [],
      "stateMutability": "nonpayable",
      "type": "function"
    }
  ],
  "bytecode": "0x6080604052348015600f57600080fd5b506117b28061001f6000396000f3fe608060405234801561001057600080fd5b506004361061007d5760003560e01c806352675be31161005b57806352675be3146100ea5780637fd5f2681461011a578063997d283014610139578063e76d28ad146101575761007d565b80632410847514610082578063349813b21461009e5780633e39a7a5146100ba575b600080fd5b61009c60048036038101906100979190610bfa565b610187565b005b6100b860048036038101906100b39190610d3c565b61042a565b005b6100d460048036038101906100cf9190610db4565b6104e4565b6040516100e19190610f22565b60405180910390f35b61010460048036038101906100ff9190610db4565b610634565b6040516101119190610f8e565b60405180910390f35b61012261073d565b60405161013092919061106e565b60405180910390f35b6101416108ec565b60405161014e91906110b4565b60405180910390f35b610171600480360381019061016c9190610bfa565b6108f2565b60405161017e91906110b4565b60405180910390f35b600080600084815260200190815260200160002090508060040160009054906101000a900460ff166101ee576040517f08c379a00000000000000000000000000000000000000000000000000000000081526004016101e59061111b565b60405180910390fd5b8060030160003373ffffffffffffffffffffffffffffffffffffffff1673ffffffffffffffffffffffffffffffffffffffff16815260200190815260200160002060009054906101000a900460ff161561027d576040517f08c379a000000000000000000000000000000000000000000000000000000000815260040161027490611187565b60405180910390fd5b6000805b826001018054905081101561031857836040516020016102a191906111e3565b604051602081830303815290604052805190602001208360010182815481106102cd576102cc6111fa565b5b906000526020600020016040516020016102e79190611321565b604051602081830303815290604052805190602001200361030b5760019150610318565b8080600101915050610281565b5080610359576040517f08c379a000000000000000000000000000000000000000000000000000000000815260040161035090611384565b60405180910390fd5b816002018360405161036b91906111e3565b9081526020016040518091039020600081548092919061038a906113d3565b919050555060018260030160003373ffffffffffffffffffffffffffffffffffffffff1673ffffffffffffffffffffffffffffffffffffffff16815260200190815260200160002060006101000a81548160ff0219169083151502179055507f909b43dcc56d91024768bbc5c8d56441234580b2fd6176844960cbc7218cc0b584338560405161041c9392919061145c565b60405180910390a150505050565b6001600081548092919061043d906113d3565b91905055506000806000600154815260200190815260200160002090508281600001908161046b9190611631565b5081816001019080519060200190610484929190610990565b5060018160040160006101000a81548160ff0219169083151502179055507fb322e78e06d418a27b1a7728240a809e6fe0014b14e194f8b187a9b911c63d7960015484846040516104d793929190611703565b60405180910390a1505050565b606060008083815260200190815260200160002060040160009054906101000a900460ff16610548576040517f08c379a000000000000000000000000000000000000000000000000000000000815260040161053f9061111b565b60405180910390fd5b600080838152602001908152602001600020600101805480602002602001604051908101604052809291908181526020016000905b8282101561062957838290600052602060002001805461059c90611258565b80601f01602080910402602001604051908101604052809291908181526020018280546105c890611258565b80156106155780601f106105ea57610100808354040283529160200191610615565b820191906000526020600020905b8154815290600101906020018083116105f857829003601f168201915b50505050508152602001906001019061057d565b505050509050919050565b606060008083815260200190815260200160002060040160009054906101000a900460ff16610698576040517f08c379a000000000000000000000000000000000000000000000000000000000815260040161068f9061111b565b60405180910390fd5b60008083815260200190815260200160002060000180546106b890611258565b80601f01602080910402602001604051908101604052809291908181526020018280546106e490611258565b80156107315780601f1061070657610100808354040283529160200191610731565b820191906000526020600020905b81548152906001019060200180831161071457829003601f168201915b50505050509050919050565b60608060015467ffffffffffffffff81111561075c5761075b610acf565b5b60405190808252806020026020018201604052801561078f57816020015b606081526020019060019003908161077a5790505b50915060015467ffffffffffffffff8111156107ae576107ad610acf565b5b6040519080825280602002602001820160405280156107dc5781602001602082028036833780820191505090505b50905060005b6001548110156108e75760006001826107fb9190611748565b9050600080828152602001908152602001600020600001805461081d90611258565b80601f016020809104026020016040519081016040528092919081815260200182805461084990611258565b80156108965780601f1061086b57610100808354040283529160200191610896565b820191906000526020600020905b81548152906001019060200180831161087957829003601f168201915b50505050508483815181106108ae576108ad6111fa565b5b6020026020010181905250808383815181106108cd576108cc6111fa565b5b6020026020010181815250505080806001019150506107e2565b509091565b60015481565b600080600084815260200190815260200160002060040160009054906101000a900460ff16610956576040517f08c379a000000000000000000000000000000000000000000000000000000000815260040161094d9061111b565b60405180910390fd5b6000808481526020019081526020016000206002018260405161097991906111e3565b908152602001604051809103902054905092915050565b8280548282559060005260206000209081019282156109d8579160200282015b828111156109d75782518290816109c79190611631565b50916020019190600101906109b0565b5b5090506109e591906109e9565b5090565b5b80821115610a095760008181610a009190610a0d565b506001016109ea565b5090565b508054610a1990611258565b6000825580601f10610a2b5750610a4a565b601f016020900490600052602060002090810190610a499190610a4d565b5b50565b5b80821115610a66576000816000905550600101610a4e565b5090565b6000604051905090565b600080fd5b600080fd5b6000819050919050565b610a9181610a7e565b8114610a9c57600080fd5b50565b600081359050610aae81610a88565b92915050565b600080fd5b600080fd5b6000601f19601f8301169050919050565b7f4e487b7100000000000000000000000000000000000000000000000000000000600052604160045260246000fd5b610b0782610abe565b810181811067ffffffffffffffff82111715610b2657610b25610acf565b5b80604052505050565b6000610b39610a6a565b9050610b458282610afe565b919050565b600067ffffffffffffffff821115610b6557610b64610acf565b5b610b6e82610abe565b9050602081019050919050565b82818337600083830152505050565b6000610b9d610b9884610b4a565b610b2f565b905082815260208101848484011115610bb957610bb8610ab9565b5b610bc4848285610b7b565b509392505050565b600082601f830112610be157610be0610ab4565b5b8135610bf1848260208601610b8a565b91505092915050565b60008060408385031215610c1157610c10610a74565b5b6000610c1f85828601610a9f565b925050602083013567ffffffffffffffff811115610c4057610c3f610a79565b5b610c4c85828601610bcc565b9150509250929050565b600067ffffffffffffffff821115610c7157610c70610acf565b5b602082029050602081019050919050565b600080fd5b6000610c9a610c9584610c56565b610b2f565b90508083825260208201905060208402830185811115610cbd57610cbc610c82565b5b835b81811015610d0457803567ffffffffffffffff811115610ce257610ce1610ab4565b5b808601610cef8982610bcc565b85526020850194505050602081019050610cbf565b5050509392505050565b600082601f830112610d2357610d22610ab4565b5b8135610d33848260208601610c87565b91505092915050565b60008060408385031215610d5357610d52610a74565b5b600083013567ffffffffffffffff811115610d7157610d70610a79565b5b610d7d85828601610bcc565b925050602083013567ffffffffffffffff811115610d9e57610d9d610a79565b5b610daa85828601610d0e565b9150509250929050565b600060208284031215610dca57610dc9610a74565b5b6000610dd884828501610a9f565b91505092915050565b600081519050919050565b600082825260208201905092915050565b6000819050602082019050919050565b600081519050919050565b600082825260208201905092915050565b60005b83811015610e47578082015181840152602081019050610e2c565b60008484015250505050565b6000610e5e82610e0d565b610e688185610e18565b9350610e78818560208601610e29565b610e8181610abe565b840191505092915050565b6000610e988383610e53565b905092915050565b6000602082019050919050565b6000610eb882610de1565b610ec28185610dec565b935083602082028501610ed485610dfd565b8060005b85811015610f105784840389528151610ef18582610e8c565b9450610efc83610ea0565b925060208a01995050600181019050610ed8565b50829750879550505050505092915050565b60006020820190508181036000830152610f3c8184610ead565b905092915050565b600082825260208201905092915050565b6000610f6082610e0d565b610f6a8185610f44565b9350610f7a818560208601610e29565b610f8381610abe565b840191505092915050565b60006020820190508181036000830152610fa88184610f55565b905092915050565b600081519050919050565b600082825260208201905092915050565b6000819050602082019050919050565b610fe581610a7e565b82525050565b6000610ff78383610fdc565b60208301905092915050565b6000602082019050919050565b600061101b82610fb0565b6110258185610fbb565b935061103083610fcc565b8060005b838110156110615781516110488882610feb565b975061105383611003565b925050600181019050611034565b5085935050505092915050565b600060408201905081810360008301526110888185610ead565b9050818103602083015261109c8184611010565b90509392505050565b6110ae81610a7e565b82525050565b60006020820190506110c960008301846110a5565b92915050565b7f456c656374696f6e206e6f7420666f756e640000000000000000000000000000600082015250565b6000611105601283610f44565b9150611110826110cf565b602082019050919050565b60006020820190508181036000830152611134816110f8565b9050919050565b7f416c726561647920766f74656400000000000000000000000000000000000000600082015250565b6000611171600d83610f44565b915061117c8261113b565b602082019050919050565b600060208201905081810360008301526111a081611164565b9050919050565b600081905092915050565b60006111bd82610e0d565b6111c781856111a7565b93506111d7818560208601610e29565b80840191505092915050565b60006111ef82846111b2565b915081905092915050565b7f4e487b7100000000000000000000000000000000000000000000000000000000600052603260045260246000fd5b7f4e487b7100000000000000000000000000000000000000000000000000000000600052602260045260246000fd5b6000600282049050600182168061127057607f821691505b60208210810361128357611282611229565b5b50919050565b60008190508160005260206000209050919050565b600081546112ab81611258565b6112b581866111a7565b945060018216600081146112d057600181146112e557611318565b60ff1983168652811515820286019350611318565b6112ee85611289565b60005b83811015611310578154818901526001820191506020810190506112f1565b838801955050505b50505092915050565b600061132d828461129e565b915081905092915050565b7f496e76616c69642063616e646964617465000000000000000000000000000000600082015250565b600061136e601183610f44565b915061137982611338565b602082019050919050565b6000602082019050818103600083015261139d81611361565b9050919050565b7f4e487b7100000000000000000000000000000000000000000000000000000000600052601160045260246000fd5b60006113de82610a7e565b91507fffffffffffffffffffffffffffffffffffffffffffffffffffffffffffffffff82036114105761140f6113a4565b5b600182019050919050565b600073ffffffffffffffffffffffffffffffffffffffff82169050919050565b60006114468261141b565b9050919050565b6114568161143b565b82525050565b600060608201905061147160008301866110a5565b61147e602083018561144d565b81810360408301526114908184610f55565b9050949350505050565b60006020601f8301049050919050565b600082821b905092915050565b6000600883026114e77fffffffffffffffffffffffffffffffffffffffffffffffffffffffffffffffff826114aa565b6114f186836114aa565b95508019841693508086168417925050509392505050565b6000819050919050565b600061152e61152961152484610a7e565b611509565b610a7e565b9050919050565b6000819050919050565b61154883611513565b61155c61155482611535565b8484546114b7565b825550505050565b600090565b611571611564565b61157c81848461153f565b505050565b5b818110156115a057611595600082611569565b600181019050611582565b5050565b601f8211156115e5576115b681611289565b6115bf8461149a565b810160208510156115ce578190505b6115e26115da8561149a565b830182611581565b50505b505050565b600082821c905092915050565b6000611608600019846008026115ea565b1980831691505092915050565b600061162183836115f7565b9150826002028217905092915050565b61163a82610e0d565b67ffffffffffffffff81111561165357611652610acf565b5b61165d8254611258565b6116688282856115a4565b600060209050601f83116001811461169b5760008415611689578287015190505b6116938582611615565b8655506116fb565b601f1984166116a986611289565b60005b828110156116d1578489015182556001820191506020850194506020810190506116ac565b868310156116ee57848901516116ea601f8916826115f7565b8355505b6001600288020188555050505b505050505050565b600060608201905061171860008301866110a5565b818103602083015261172a8185610f55565b9050818103604083015261173e8184610ead565b9050949350505050565b600061175382610a7e565b915061175e83610a7e565b9250828201905080821115611776576117756113a4565b5b9291505056fea2646970667358221220f52c3ce595bf7dbb47a0a3d8ddd19540d2d6a73a0b8298e72454d968c5a99eb164736f6c634300081c0033",
  "linkReferences": {},
  "deployedLinkReferences": {}
}