{
  "_format": "hh-sol-artifact-1",
  "contractName": "VoteChain",
  "sourceName": "contracts/VoteChain.sol",
  "abi": [
    {
      "inputs": [
        {
          "internalType": "string[]",
          "name": "_candidates",
          "type": "string[]"
        }
      ],
      "stateMutability": "nonpayable",
      "type": "constructor"
    },
    {
      "inputs": [
        {
          "internalType": "uint256",
          "name": "",
          "type": "uint256"
        }
      ],
      "name": "candidates",
      "outputs": [
        {
          "internalType": "string",
          "name": "",
          "type": "string"
        }
      ],
      "stateMutability": "view",
      "type": "function"
    },
    {
      "inputs": [],
      "name": "getCandidates",
      "outputs": [
        {
          "internalType": "string[]",
          "name": "",
          "type": "string[]"
        }
      ],
      "stateMutability": "view",
      "type": "function"
    },
    {
      "inputs": [
        {
          "internalType": "string",
          "name": "candidate",
          "type": "string"
        }
      ],
      "name": "getVotes",
      "outputs": [
        {
          "internalType": "uint256",
          "name": "",
          "type": "uint256"
        }
      ],
      "stateMutability": "view",
      "type": "function"
    },
    {
      "inputs": [
        {
          "internalType": "address",
          "name": "",
          "type": "address"
        }
      ],
      "name": "hasVoted",
      "outputs": [
        {
          "internalType": "bool",
          "name": "",
          "type": "bool"
        }
      ],
      "stateMutability": "view",
      "type": "function"
    },
    {
      "inputs": [
        {
          "internalType": "string",
          "name": "candidate",
          "type": "string"
        }
      ],
      "name": "vote",
      "outputs": [],
      "stateMutability": "nonpayable",
      "type": "function"
    },
    {
      "inputs": [
        {
          "internalType": "string",
          "name": "",
          "type": "string"
        }
      ],
      "name": "votes",
      "outputs": [
        {
          "internalType": "uint256",
          "name": "",
          "type": "uint256"
        }
      ],
      "stateMutability": "view",
      "type": "function"
    }
  ],
  "bytecode": "0x608060405234801561001057600080fd5b506040516113e33803806113e383398181016040528101906100329190610384565b806000908051906020019061004892919061004f565b50506106c0565b828054828255906000526020600020908101928215610097579160200282015b8281111561009657825182908161008691906105ee565b509160200191906001019061006f565b5b5090506100a491906100a8565b5090565b5b808211156100c857600081816100bf91906100cc565b506001016100a9565b5090565b5080546100d890610407565b6000825580601f106100ea5750610109565b601f016020900490600052602060002090810190610108919061010c565b5b50565b5b8082111561012557600081600090555060010161010d565b5090565b6000604051905090565b600080fd5b600080fd5b600080fd5b6000601f19601f8301169050919050565b7f4e487b7100000000000000000000000000000000000000000000000000000000600052604160045260246000fd5b61018b82610142565b810181811067ffffffffffffffff821117156101aa576101a9610153565b5b80604052505050565b60006101bd610129565b90506101c98282610182565b919050565b600067ffffffffffffffff8211156101e9576101e8610153565b5b602082029050602081019050919050565b600080fd5b600080fd5b600067ffffffffffffffff82111561021f5761021e610153565b5b61022882610142565b9050602081019050919050565b60005b83811015610253578082015181840152602081019050610238565b60008484015250505050565b600061027261026d84610204565b6101b3565b90508281526020810184848401111561028e5761028d6101ff565b5b610299848285610235565b509392505050565b600082601f8301126102b6576102b561013d565b5b81516102c684826020860161025f565b91505092915050565b60006102e26102dd846101ce565b6101b3565b90508083825260208201905060208402830185811115610305576103046101fa565b5b835b8181101561034c57805167ffffffffffffffff81111561032a5761032961013d565b5b80860161033789826102a1565b85526020850194505050602081019050610307565b5050509392505050565b600082601f83011261036b5761036a61013d565b5b815161037b8482602086016102cf565b91505092915050565b60006020828403121561039a57610399610133565b5b600082015167ffffffffffffffff8111156103b8576103b7610138565b5b6103c484828501610356565b91505092915050565b600081519050919050565b7f4e487b7100000000000000000000000000000000000000000000000000000000600052602260045260246000fd5b6000600282049050600182168061041f57607f821691505b602082108103610432576104316103d8565b5b50919050565b60008190508160005260206000209050919050565b60006020601f8301049050919050565b600082821b905092915050565b60006008830261049a7fffffffffffffffffffffffffffffffffffffffffffffffffffffffffffffffff8261045d565b6104a4868361045d565b95508019841693508086168417925050509392505050565b6000819050919050565b6000819050919050565b60006104eb6104e66104e1846104bc565b6104c6565b6104bc565b9050919050565b6000819050919050565b610505836104d0565b610519610511826104f2565b84845461046a565b825550505050565b600090565b61052e610521565b6105398184846104fc565b505050565b5b8181101561055d57610552600082610526565b60018101905061053f565b5050565b601f8211156105a25761057381610438565b61057c8461044d565b8101602085101561058b578190505b61059f6105978561044d565b83018261053e565b50505b505050565b600082821c905092915050565b60006105c5600019846008026105a7565b1980831691505092915050565b60006105de83836105b4565b9150826002028217905092915050565b6105f7826103cd565b67ffffffffffffffff8111156106105761060f610153565b5b61061a8254610407565b610625828285610561565b600060209050601f8311600181146106585760008415610646578287015190505b61065085826105d2565b8655506106b8565b601f19841661066686610438565b60005b8281101561068e57848901518255600182019150602085019450602081019050610669565b868310156106ab57848901516106a7601f8916826105b4565b8355505b6001600288020188555050505b505050505050565b610d14806106cf6000396000f3fe608060405234801561001057600080fd5b50600436106100625760003560e01c806306a49fce1461006757806309eef43e146100855780633477ee2e146100b5578063805265e5146100e5578063b99ef1fa14610115578063fc36e15b14610145575b600080fd5b61006f610161565b60405161007c91906106a4565b60405180910390f35b61009f600480360381019061009a9190610738565b61023a565b6040516100ac9190610780565b60405180910390f35b6100cf60048036038101906100ca91906107d1565b61025a565b6040516100dc9190610848565b60405180910390f35b6100ff60048036038101906100fa919061099f565b610306565b60405161010c91906109f7565b60405180910390f35b61012f600480360381019061012a919061099f565b61032e565b60405161013c91906109f7565b60405180910390f35b61015f600480360381019061015a919061099f565b61035c565b005b60606000805480602002602001604051908101604052809291908181526020016000905b828210156102315783829060005260206000200180546101a490610a41565b80601f01602080910402602001604051908101604052809291908181526020018280546101d090610a41565b801561021d5780601f106101f25761010080835404028352916020019161021d565b820191906000526020600020905b81548152906001019060200180831161020057829003601f168201915b505050505081526020019060010190610185565b50505050905090565b60026020528060005260406000206000915054906101000a900460ff1681565b6000818154811061026a57600080fd5b90600052602060002001600091509050805461028590610a41565b80601f01602080910402602001604051908101604052809291908181526020018280546102b190610a41565b80156102fe5780601f106102d3576101008083540402835291602001916102fe565b820191906000526020600020905b8154815290600101906020018083116102e157829003601f168201915b505050505081565b60006001826040516103189190610aae565b9081526020016040518091039020549050919050565b6001818051602081018201805184825260208301602085012081835280955050505050506000915090505481565b600260003373ffffffffffffffffffffffffffffffffffffffff1673ffffffffffffffffffffffffffffffffffffffff16815260200190815260200160002060009054906101000a900460ff16156103e9576040517f08c379a00000000000000000000000000000000000000000000000000000000081526004016103e090610b11565b60405180910390fd5b6000805b600080549050811015610480578260405160200161040b9190610aae565b604051602081830303815290604052805190602001206000828154811061043557610434610b31565b5b9060005260206000200160405160200161044f9190610bf8565b60405160208183030381529060405280519060200120036104735760019150610480565b80806001019150506103ed565b50806104c1576040517f08c379a00000000000000000000000000000000000000000000000000000000081526004016104b890610c5b565b60405180910390fd5b600180836040516104d29190610aae565b908152602001604051809103902060008282546104ef9190610caa565b925050819055506001600260003373ffffffffffffffffffffffffffffffffffffffff1673ffffffffffffffffffffffffffffffffffffffff16815260200190815260200160002060006101000a81548160ff0219169083151502179055505050565b600081519050919050565b600082825260208201905092915050565b6000819050602082019050919050565b600081519050919050565b600082825260208201905092915050565b60005b838110156105b857808201518184015260208101905061059d565b60008484015250505050565b6000601f19601f8301169050919050565b60006105e08261057e565b6105ea8185610589565b93506105fa81856020860161059a565b610603816105c4565b840191505092915050565b600061061a83836105d5565b905092915050565b6000602082019050919050565b600061063a82610552565b610644818561055d565b9350836020820285016106568561056e565b8060005b858110156106925784840389528151610673858261060e565b945061067e83610622565b925060208a0199505060018101905061065a565b50829750879550505050505092915050565b600060208201905081810360008301526106be818461062f565b905092915050565b6000604051905090565b600080fd5b600080fd5b600073ffffffffffffffffffffffffffffffffffffffff82169050919050565b6000610705826106da565b9050919050565b610715816106fa565b811461072057600080fd5b50565b6000813590506107328161070c565b92915050565b60006020828403121561074e5761074d6106d0565b5b600061075c84828501610723565b91505092915050565b60008115159050919050565b61077a81610765565b82525050565b60006020820190506107956000830184610771565b92915050565b6000819050919050565b6107ae8161079b565b81146107b957600080fd5b50565b6000813590506107cb816107a5565b92915050565b6000602082840312156107e7576107e66106d0565b5b60006107f5848285016107bc565b91505092915050565b600082825260208201905092915050565b600061081a8261057e565b61082481856107fe565b935061083481856020860161059a565b61083d816105c4565b840191505092915050565b60006020820190508181036000830152610862818461080f565b905092915050565b600080fd5b600080fd5b7f4e487b7100000000000000000000000000000000000000000000000000000000600052604160045260246000fd5b6108ac826105c4565b810181811067ffffffffffffffff821117156108cb576108ca610874565b5b80604052505050565b60006108de6106c6565b90506108ea82826108a3565b919050565b600067ffffffffffffffff82111561090a57610909610874565b5b610913826105c4565b9050602081019050919050565b82818337600083830152505050565b600061094261093d846108ef565b6108d4565b90508281526020810184848401111561095e5761095d61086f565b5b610969848285610920565b509392505050565b600082601f8301126109865761098561086a565b5b813561099684826020860161092f565b91505092915050565b6000602082840312156109b5576109b46106d0565b5b600082013567ffffffffffffffff8111156109d3576109d26106d5565b5b6109df84828501610971565b91505092915050565b6109f18161079b565b82525050565b6000602082019050610a0c60008301846109e8565b92915050565b7f4e487b7100000000000000000000000000000000000000000000000000000000600052602260045260246000fd5b60006002820490506001821680610a5957607f821691505b602082108103610a6c57610a6b610a12565b5b50919050565b600081905092915050565b6000610a888261057e565b610a928185610a72565b9350610aa281856020860161059a565b80840191505092915050565b6000610aba8284610a7d565b915081905092915050565b7f596f75206861766520616c726561647920766f74656400000000000000000000600082015250565b6000610afb6016836107fe565b9150610b0682610ac5565b602082019050919050565b60006020820190508181036000830152610b2a81610aee565b9050919050565b7f4e487b7100000000000000000000000000000000000000000000000000000000600052603260045260246000fd5b60008190508160005260206000209050919050565b60008154610b8281610a41565b610b8c8186610a72565b94506001821660008114610ba75760018114610bbc57610bef565b60ff1983168652811515820286019350610bef565b610bc585610b60565b60005b83811015610be757815481890152600182019150602081019050610bc8565b838801955050505b50505092915050565b6000610c048284610b75565b915081905092915050565b7f496e76616c69642063616e646964617465000000000000000000000000000000600082015250565b6000610c456011836107fe565b9150610c5082610c0f565b602082019050919050565b60006020820190508181036000830152610c7481610c38565b9050919050565b7f4e487b7100000000000000000000000000000000000000000000000000000000600052601160045260246000fd5b6000610cb58261079b565b9150610cc08361079b565b9250828201905080821115610cd857610cd7610c7b565b5b9291505056fea2646970667358221220f657b38c12e812b0293ba32b4d7b59a075e3d2cb1b5f532a5ca5eecd29a1b60c64736f6c634300081c0033",
  "linkReferences": {},
  "deployedLinkReferences": {}
}